{
  "contractName": "FileHashStorage",
  "abi": [
    {
      "inputs": [],
      "payable": false,
      "stateMutability": "nonpayable",
      "type": "constructor"
    },
    {
      "constant": false,
      "inputs": [
        {
          "name": "hash",
          "type": "string"
        }
      ],
      "name": "addFile",
      "outputs": [
        {
          "name": "index",
          "type": "uint256"
        }
      ],
      "payable": false,
      "stateMutability": "nonpayable",
      "type": "function"
    },
    {
      "constant": false,
      "inputs": [
        {
          "name": "index",
          "type": "uint256"
        },
        {
          "name": "tag",
          "type": "string"
        }
      ],
      "name": "addTagToFile",
      "outputs": [
        {
          "name": "status",
          "type": "bool"
        }
      ],
      "payable": false,
      "stateMutability": "nonpayable",
      "type": "function"
    },
    {
      "constant": true,
      "inputs": [
        {
          "name": "hash",
          "type": "string"
        }
      ],
      "name": "getAddressFromFile",
      "outputs": [
        {
          "name": "user",
          "type": "address"
        }
      ],
      "payable": false,
      "stateMutability": "view",
      "type": "function"
    },
    {
      "constant": true,
      "inputs": [],
      "name": "getFilesLength",
      "outputs": [
        {
          "name": "length",
          "type": "uint256"
        }
      ],
      "payable": false,
      "stateMutability": "view",
      "type": "function"
    },
    {
      "constant": true,
      "inputs": [
        {
          "name": "index",
          "type": "uint256"
        }
      ],
      "name": "getFileHash",
      "outputs": [
        {
          "name": "hash",
          "type": "string"
        }
      ],
      "payable": false,
      "stateMutability": "view",
      "type": "function"
    },
    {
      "constant": true,
      "inputs": [
        {
          "name": "index",
          "type": "uint256"
        }
      ],
      "name": "getFileTagsLength",
      "outputs": [
        {
          "name": "length",
          "type": "uint256"
        }
      ],
      "payable": false,
      "stateMutability": "view",
      "type": "function"
    },
    {
      "constant": true,
      "inputs": [
        {
          "name": "fileIndex",
          "type": "uint256"
        },
        {
          "name": "tagIndex",
          "type": "uint256"
        }
      ],
      "name": "getFileTag",
      "outputs": [
        {
          "name": "tag",
          "type": "string"
        }
      ],
      "payable": false,
      "stateMutability": "view",
      "type": "function"
    }
  ],
  "bytecode": "0x608060405234801561001057600080fd5b5033600260006101000a81548173ffffffffffffffffffffffffffffffffffffffff021916908373ffffffffffffffffffffffffffffffffffffffff160217905550610b1a806100616000396000f300608060405260043610610083576000357c0100000000000000000000000000000000000000000000000000000000900463ffffffff1680633c34768a146100885780634533dd47146101315780635956c40b146101725780639e001f441461019d578063aa78083014610228578063eb131135146102d8578063eb9b9b641461037e575b600080fd5b34801561009457600080fd5b506100ef600480360381019080803590602001908201803590602001908080601f01602080910402602001604051908101604052809392919081815260200183838082843782019150505050505091929192905050506103fb565b604051808273ffffffffffffffffffffffffffffffffffffffff1673ffffffffffffffffffffffffffffffffffffffff16815260200191505060405180910390f35b34801561013d57600080fd5b5061015c60048036038101908080359060200190929190505050610490565b6040518082815260200191505060405180910390f35b34801561017e57600080fd5b506101876104f9565b6040518082815260200191505060405180910390f35b3480156101a957600080fd5b5061020e60048036038101908080359060200190929190803590602001908201803590602001908080601f0160208091040260200160405190810160405280939291908181526020018383808284378201915050505050509192919290505050610542565b604051808215151515815260200191505060405180910390f35b34801561023457600080fd5b5061025d60048036038101908080359060200190929190803590602001909291905050506105e7565b6040518080602001828103825283818151815260200191508051906020019080838360005b8381101561029d578082015181840152602081019050610282565b50505050905090810190601f1680156102ca5780820380516001836020036101000a031916815260200191505b509250505060405180910390f35b3480156102e457600080fd5b50610303600480360381019080803590602001909291905050506106fd565b6040518080602001828103825283818151815260200191508051906020019080838360005b83811015610343578082015181840152602081019050610328565b50505050905090810190601f1680156103705780820380516001836020036101000a031916815260200191505b509250505060405180910390f35b34801561038a57600080fd5b506103e5600480360381019080803590602001908201803590602001908080601f01602080910402602001604051908101604052809392919081815260200183838082843782019150505050505091929192905050506107fb565b6040518082815260200191505060405180910390f35b60006001826040518082805190602001908083835b6020831015156104355780518252602082019150602081019050602083039250610410565b6001836020036101000a038019825116818451168082178552505050505050905001915050908152602001604051809103902060009054906101000a900473ffffffffffffffffffffffffffffffffffffffff169050919050565b60008060003373ffffffffffffffffffffffffffffffffffffffff1673ffffffffffffffffffffffffffffffffffffffff168152602001908152602001600020828154811015156104dd57fe5b9060005260206000209060020201600101805490509050919050565b60008060003373ffffffffffffffffffffffffffffffffffffffff1673ffffffffffffffffffffffffffffffffffffffff16815260200190815260200160002080549050905090565b60008060003373ffffffffffffffffffffffffffffffffffffffff1673ffffffffffffffffffffffffffffffffffffffff1681526020019081526020016000208381548110151561058f57fe5b90600052602060002090600202016001018290806001815401808255809150509060018203906000526020600020016000909192909190915090805190602001906105db9291906108f5565b50506001905092915050565b60606000803373ffffffffffffffffffffffffffffffffffffffff1673ffffffffffffffffffffffffffffffffffffffff1681526020019081526020016000208381548110151561063457fe5b90600052602060002090600202016001018281548110151561065257fe5b906000526020600020018054600181600116156101000203166002900480601f0160208091040260200160405190810160405280929190818152602001828054600181600116156101000203166002900480156106f05780601f106106c5576101008083540402835291602001916106f0565b820191906000526020600020905b8154815290600101906020018083116106d357829003601f168201915b5050505050905092915050565b60606000803373ffffffffffffffffffffffffffffffffffffffff1673ffffffffffffffffffffffffffffffffffffffff1681526020019081526020016000208281548110151561074a57fe5b90600052602060002090600202016000018054600181600116156101000203166002900480601f0160208091040260200160405190810160405280929190818152602001828054600181600116156101000203166002900480156107ef5780601f106107c4576101008083540402835291602001916107ef565b820191906000526020600020905b8154815290600101906020018083116107d257829003601f168201915b50505050509050919050565b60008060003373ffffffffffffffffffffffffffffffffffffffff1673ffffffffffffffffffffffffffffffffffffffff1681526020019081526020016000206040805190810160405280848152602001600060405190808252806020026020018201604052801561088157816020015b606081526020019060019003908161086c5790505b508152509080600181540180825580915050906001820390600052602060002090600202016000909192909190915060008201518160000190805190602001906108cc929190610975565b5060208201518160010190805190602001906108e99291906109f5565b50505050809050919050565b828054600181600116156101000203166002900490600052602060002090601f016020900481019282601f1061093657805160ff1916838001178555610964565b82800160010185558215610964579182015b82811115610963578251825591602001919060010190610948565b5b5090506109719190610a55565b5090565b828054600181600116156101000203166002900490600052602060002090601f016020900481019282601f106109b657805160ff19168380011785556109e4565b828001600101855582156109e4579182015b828111156109e35782518255916020019190600101906109c8565b5b5090506109f19190610a55565b5090565b828054828255906000526020600020908101928215610a44579160200282015b82811115610a43578251829080519060200190610a33929190610975565b5091602001919060010190610a15565b5b509050610a519190610a7a565b5090565b610a7791905b80821115610a73576000816000905550600101610a5b565b5090565b90565b610aa391905b80821115610a9f5760008181610a969190610aa6565b50600101610a80565b5090565b90565b50805460018160011615610100020316600290046000825580601f10610acc5750610aeb565b601f016020900490600052602060002090810190610aea9190610a55565b5b505600a165627a7a72305820878c7d2d418aefd8ac3dd68dc11a192a087beed19c31f86b28eea453ebc5fd740029",
  "source": "pragma solidity 0.4.24;\n\n\ncontract FileHashStorage {\n    struct File {\n        string hash;\n        string[] tags;\n    }\n    \n    struct User {\n        File[] documents;\n    }\n    \n    mapping (address => File[]) filesByUser;\n    mapping (string => address) userByFileHash;\n    address owner;\n    \n    constructor() public {\n        owner = msg.sender;\n    }\n    \n    function addFile(string hash)\n        public\n        returns (uint index)\n    {\n        filesByUser[msg.sender].push(File(hash, new string[](0)));\n        return index;\n    }\n    \n    function addTagToFile(uint index, string tag)\n        public\n        returns (bool status)\n    {\n        filesByUser[msg.sender][index].tags.push(tag);\n        return true;\n    }\n    \n    function getAddressFromFile(string hash)\n        public\n        view\n        returns (address user)\n    {\n        return userByFileHash[hash];\n    }\n    \n    function getFilesLength()\n        public\n        view\n        returns (uint length)\n    {\n        return filesByUser[msg.sender].length;\n    }\n    \n    function getFileHash(uint index)\n        public\n        view\n        returns (string hash)\n    {\n        return filesByUser[msg.sender][index].hash;\n    }\n    \n    function getFileTagsLength(uint index)\n        public\n        view\n        returns (uint length)\n    {\n        return filesByUser[msg.sender][index].tags.length;\n    }\n    \n    function getFileTag(uint fileIndex, uint tagIndex)\n        public\n        view\n        returns (string tag)\n    {\n        return filesByUser[msg.sender][fileIndex].tags[tagIndex];\n    }\n}\n",
  "sourcePath": "/Users/jmoreira/Code/consensys/academy/project/dapp/contracts/FileHashStorage.sol",
  "compiler": {
    "name": "solc",
    "version": "0.4.24+commit.e67f0147.Emscripten.clang"
  },
  "schemaVersion": "2.0.1",
  "updatedAt": "2018-08-18T00:13:23.910Z"
}