{
  "contractName": "FileHashStorage",
  "abi": [
    {
      "constant": false,
      "inputs": [],
      "name": "unpause",
      "outputs": [],
      "payable": false,
      "stateMutability": "nonpayable",
      "type": "function"
    },
    {
      "constant": true,
      "inputs": [
        {
          "name": "",
          "type": "address"
        },
        {
          "name": "",
          "type": "uint256"
        }
      ],
      "name": "filesByUser",
      "outputs": [
        {
          "name": "digest",
          "type": "bytes32"
        },
        {
          "name": "hashFunction",
          "type": "uint8"
        },
        {
          "name": "size",
          "type": "uint8"
        },
        {
          "name": "timestamp",
          "type": "uint256"
        }
      ],
      "payable": false,
      "stateMutability": "view",
      "type": "function"
    },
    {
      "constant": true,
      "inputs": [],
      "name": "paused",
      "outputs": [
        {
          "name": "",
          "type": "bool"
        }
      ],
      "payable": false,
      "stateMutability": "view",
      "type": "function"
    },
    {
      "constant": true,
      "inputs": [
        {
          "name": "",
          "type": "bytes32"
        }
      ],
      "name": "userByFileHash",
      "outputs": [
        {
          "name": "",
          "type": "address"
        }
      ],
      "payable": false,
      "stateMutability": "view",
      "type": "function"
    },
    {
      "constant": false,
      "inputs": [],
      "name": "destroy",
      "outputs": [],
      "payable": false,
      "stateMutability": "nonpayable",
      "type": "function"
    },
    {
      "constant": false,
      "inputs": [],
      "name": "pause",
      "outputs": [],
      "payable": false,
      "stateMutability": "nonpayable",
      "type": "function"
    },
    {
      "constant": true,
      "inputs": [],
      "name": "owner",
      "outputs": [
        {
          "name": "",
          "type": "address"
        }
      ],
      "payable": false,
      "stateMutability": "view",
      "type": "function"
    },
    {
      "constant": false,
      "inputs": [
        {
          "name": "newOwner",
          "type": "address"
        }
      ],
      "name": "transferOwnership",
      "outputs": [],
      "payable": false,
      "stateMutability": "nonpayable",
      "type": "function"
    },
    {
      "constant": false,
      "inputs": [
        {
          "name": "_recipient",
          "type": "address"
        }
      ],
      "name": "destroyAndSend",
      "outputs": [],
      "payable": false,
      "stateMutability": "nonpayable",
      "type": "function"
    },
    {
      "anonymous": false,
      "inputs": [],
      "name": "Pause",
      "type": "event"
    },
    {
      "anonymous": false,
      "inputs": [],
      "name": "Unpause",
      "type": "event"
    },
    {
      "anonymous": false,
      "inputs": [
        {
          "indexed": true,
          "name": "previousOwner",
          "type": "address"
        },
        {
          "indexed": true,
          "name": "newOwner",
          "type": "address"
        }
      ],
      "name": "OwnershipTransferred",
      "type": "event"
    },
    {
      "constant": false,
      "inputs": [
        {
          "name": "digest",
          "type": "bytes32"
        },
        {
          "name": "hashFunction",
          "type": "uint8"
        },
        {
          "name": "size",
          "type": "uint8"
        }
      ],
      "name": "addFile",
      "outputs": [],
      "payable": false,
      "stateMutability": "nonpayable",
      "type": "function"
    },
    {
      "constant": true,
      "inputs": [
        {
          "name": "digest",
          "type": "bytes32"
        },
        {
          "name": "hashFunction",
          "type": "uint8"
        },
        {
          "name": "size",
          "type": "uint8"
        }
      ],
      "name": "getOwnerOfFile",
      "outputs": [
        {
          "name": "ownerAddress",
          "type": "address"
        }
      ],
      "payable": false,
      "stateMutability": "view",
      "type": "function"
    },
    {
      "constant": true,
      "inputs": [],
      "name": "filesQuantity",
      "outputs": [
        {
          "name": "index",
          "type": "uint256"
        }
      ],
      "payable": false,
      "stateMutability": "view",
      "type": "function"
    }
  ],
  "bytecode": "0x608060405260008060146101000a81548160ff021916908315150217905550336000806101000a81548173ffffffffffffffffffffffffffffffffffffffff021916908373ffffffffffffffffffffffffffffffffffffffff160217905550610ca78061006d6000396000f3006080604052600436106100ba576000357c0100000000000000000000000000000000000000000000000000000000900463ffffffff168063195447fa146100bf5780633f4ba83a1461014a57806358981def146101615780635c975abb146101eb578063601c3c5a1461021a57806383197ef01461028b5780638456cb59146102a25780638da5cb5b146102b95780639b453da014610310578063ce6e09a71461035b578063f2fde38b14610386578063f5074f41146103c9575b600080fd5b3480156100cb57600080fd5b506101086004803603810190808035600019169060200190929190803560ff169060200190929190803560ff16906020019092919050505061040c565b604051808273ffffffffffffffffffffffffffffffffffffffff1673ffffffffffffffffffffffffffffffffffffffff16815260200191505060405180910390f35b34801561015657600080fd5b5061015f610462565b005b34801561016d57600080fd5b506101ac600480360381019080803573ffffffffffffffffffffffffffffffffffffffff16906020019092919080359060200190929190505050610520565b6040518085600019166000191681526020018460ff1660ff1681526020018360ff1660ff16815260200182815260200194505050505060405180910390f35b3480156101f757600080fd5b50610200610586565b604051808215151515815260200191505060405180910390f35b34801561022657600080fd5b506102496004803603810190808035600019169060200190929190505050610599565b604051808273ffffffffffffffffffffffffffffffffffffffff1673ffffffffffffffffffffffffffffffffffffffff16815260200191505060405180910390f35b34801561029757600080fd5b506102a06105cc565b005b3480156102ae57600080fd5b506102b7610661565b005b3480156102c557600080fd5b506102ce610721565b604051808273ffffffffffffffffffffffffffffffffffffffff1673ffffffffffffffffffffffffffffffffffffffff16815260200191505060405180910390f35b34801561031c57600080fd5b506103596004803603810190808035600019169060200190929190803560ff169060200190929190803560ff169060200190929190505050610746565b005b34801561036757600080fd5b50610370610973565b6040518082815260200191505060405180910390f35b34801561039257600080fd5b506103c7600480360381019080803573ffffffffffffffffffffffffffffffffffffffff1690602001909291905050506109bd565b005b3480156103d557600080fd5b5061040a600480360381019080803573ffffffffffffffffffffffffffffffffffffffff169060200190929190505050610b12565b005b60008061041a858585610b86565b905060026000826000191660001916815260200190815260200160002060009054906101000a900473ffffffffffffffffffffffffffffffffffffffff169150509392505050565b6000809054906101000a900473ffffffffffffffffffffffffffffffffffffffff1673ffffffffffffffffffffffffffffffffffffffff163373ffffffffffffffffffffffffffffffffffffffff161415156104bd57600080fd5b600060149054906101000a900460ff1615156104d857600080fd5b60008060146101000a81548160ff0219169083151502179055507f7805862f689e2f13df9f062ff482ad3ad112aca9e0847911ed832e158c525b3360405160405180910390a1565b60016020528160005260406000208181548110151561053b57fe5b9060005260206000209060030201600091509150508060000154908060010160009054906101000a900460ff16908060010160019054906101000a900460ff16908060020154905084565b600060149054906101000a900460ff1681565b60026020528060005260406000206000915054906101000a900473ffffffffffffffffffffffffffffffffffffffff1681565b6000809054906101000a900473ffffffffffffffffffffffffffffffffffffffff1673ffffffffffffffffffffffffffffffffffffffff163373ffffffffffffffffffffffffffffffffffffffff1614151561062757600080fd5b6000809054906101000a900473ffffffffffffffffffffffffffffffffffffffff1673ffffffffffffffffffffffffffffffffffffffff16ff5b6000809054906101000a900473ffffffffffffffffffffffffffffffffffffffff1673ffffffffffffffffffffffffffffffffffffffff163373ffffffffffffffffffffffffffffffffffffffff161415156106bc57600080fd5b600060149054906101000a900460ff161515156106d857600080fd5b6001600060146101000a81548160ff0219169083151502179055507f6985a02210a168e66602d3235cb6db0e70f92b3ba4d376a33c0f3d9434bff62560405160405180910390a1565b6000809054906101000a900473ffffffffffffffffffffffffffffffffffffffff1681565b6000610753848484610b86565b9050600060026000836000191660001916815260200190815260200160002060009054906101000a900473ffffffffffffffffffffffffffffffffffffffff1673ffffffffffffffffffffffffffffffffffffffff1614151561081e576040517f08c379a000000000000000000000000000000000000000000000000000000000815260040180806020018281038252601e8152602001807f546869732066696c652077617320616c72656164792075706c6f61646564000081525060200191505060405180910390fd5b600160003373ffffffffffffffffffffffffffffffffffffffff1673ffffffffffffffffffffffffffffffffffffffff168152602001908152602001600020608060405190810160405280866000191681526020018560ff1681526020018460ff16815260200142815250908060018154018082558091505090600182039060005260206000209060030201600090919290919091506000820151816000019060001916905560208201518160010160006101000a81548160ff021916908360ff16021790555060408201518160010160016101000a81548160ff021916908360ff160217905550606082015181600201555050503360026000836000191660001916815260200190815260200160002060006101000a81548173ffffffffffffffffffffffffffffffffffffffff021916908373ffffffffffffffffffffffffffffffffffffffff16021790555050505050565b6000600160003373ffffffffffffffffffffffffffffffffffffffff1673ffffffffffffffffffffffffffffffffffffffff16815260200190815260200160002080549050905090565b6000809054906101000a900473ffffffffffffffffffffffffffffffffffffffff1673ffffffffffffffffffffffffffffffffffffffff163373ffffffffffffffffffffffffffffffffffffffff16141515610a1857600080fd5b600073ffffffffffffffffffffffffffffffffffffffff168173ffffffffffffffffffffffffffffffffffffffff1614151515610a5457600080fd5b8073ffffffffffffffffffffffffffffffffffffffff166000809054906101000a900473ffffffffffffffffffffffffffffffffffffffff1673ffffffffffffffffffffffffffffffffffffffff167f8be0079c531659141344cd1fd0a4f28419497f9722a3daafe3b4186f6b6457e060405160405180910390a3806000806101000a81548173ffffffffffffffffffffffffffffffffffffffff021916908373ffffffffffffffffffffffffffffffffffffffff16021790555050565b6000809054906101000a900473ffffffffffffffffffffffffffffffffffffffff1673ffffffffffffffffffffffffffffffffffffffff163373ffffffffffffffffffffffffffffffffffffffff16141515610b6d57600080fd5b8073ffffffffffffffffffffffffffffffffffffffff16ff5b60008383836040516020018084600019166000191681526020018360ff1660ff167f01000000000000000000000000000000000000000000000000000000000000000281526001018260ff1660ff167f010000000000000000000000000000000000000000000000000000000000000002815260010193505050506040516020818303038152906040526040518082805190602001908083835b602083101515610c455780518252602082019150602081019050602083039250610c20565b6001836020036101000a0380198251168184511680821785525050505050509050019150506040518091039020905093925050505600a165627a7a723058201550229c8feff90aa25fd7277e52fb77a10d2b94c46b06084a80f193545d1cd80029",
  "source": "pragma solidity 0.4.24;\n\nimport \"zeppelin/contracts/lifecycle/Destructible.sol\";\nimport \"zeppelin/contracts/lifecycle/Pausable.sol\";\n\n/** @title Associates files represented by its IPFS hash to ethereum addresses\n  * @author Joaquin Moreira\n  * @notice You can use this contract for only the most basic simulation\n  * @dev The IPFS is received through the addFile separated in its 3 components:\n  * digest, hashFunction and size.\n*/\ncontract FileHashStorage is Destructible, Pausable {\n    struct File {\n        bytes32 digest;\n        uint8 hashFunction;\n        uint8 size;\n        uint timestamp;\n    }\n    \n    struct User {\n        File[] documents;\n    }\n\n    /* @dev This mapping is used for getting all the files from an address */    \n    mapping (address => File[]) public filesByUser;\n\n    /* @dev This mapping is used for checking if some file is already owned */\n    mapping (bytes32 => address) public userByFileHash;\n\n\n    /** @dev Adds a file represented by its IPFS hash components \n      * to the mappings above\n      */      \n    function addFile(bytes32 digest, uint8 hashFunction, uint8 size)\n        public\n    {\n        bytes32 hash = getIPFSHash(digest, hashFunction, size);\n        require(\n            userByFileHash[hash] == 0x0,\n            \"This file was already uploaded\"\n        );\n        \n        filesByUser[msg.sender].push(File(digest, hashFunction, size, block.timestamp));\n        userByFileHash[hash] = msg.sender;\n    }\n\n    /** @dev Returns the owner of a file represented by its IPFH hash components\n      * @return the address of the owner\n      */\n    function getOwnerOfFile(bytes32 digest, uint8 hashFunction, uint8 size) \n        public\n        view\n        returns (address ownerAddress) \n    {\n        bytes32 hash = getIPFSHash(digest, hashFunction, size);\n        return userByFileHash[hash];\n    }\n    \n    /** @dev Hashes the IPFSHash components to get a key to the usersByFileHash mapping\n      * @return the hash of the file\n      */\n    function getIPFSHash(bytes32 digest, uint8 hashFunction, uint8 size)\n        internal\n        pure\n        returns (bytes32 hash)\n    {\n        return keccak256(abi.encodePacked(digest, hashFunction, size));\n    }\n    \n    /** @dev Returns the quantity of files associated to the address of the sender \n      * @return the quantity of the files associated to the address\n      */\n    function filesQuantity()\n        public\n        view\n        returns (uint index)\n    {\n        return filesByUser[msg.sender].length;\n    }\n}\n",
  "sourcePath": "/Users/jmoreira/Code/0xe725f33f00e91850a4deec64303cc932a5026c0a/contracts/FileHashStorage.sol",
  "compiler": {
    "name": "solc",
    "version": "0.4.24+commit.e67f0147.Emscripten.clang"
  },
  "schemaVersion": "2.0.1",
  "updatedAt": "2018-08-28T14:45:06.522Z"
}