{
  "contractName": "FileHashStorage",
  "abi": [
    {
      "constant": true,
      "inputs": [
        {
          "name": "",
          "type": "address"
        },
        {
          "name": "",
          "type": "uint256"
        }
      ],
      "name": "filesByUser",
      "outputs": [
        {
          "name": "digest",
          "type": "bytes32"
        },
        {
          "name": "hashFunction",
          "type": "uint8"
        },
        {
          "name": "size",
          "type": "uint8"
        },
        {
          "name": "timestamp",
          "type": "uint256"
        }
      ],
      "payable": false,
      "stateMutability": "view",
      "type": "function"
    },
    {
      "constant": false,
      "inputs": [
        {
          "name": "digest",
          "type": "bytes32"
        },
        {
          "name": "hashFunction",
          "type": "uint8"
        },
        {
          "name": "size",
          "type": "uint8"
        }
      ],
      "name": "addFile",
      "outputs": [
        {
          "name": "success",
          "type": "bool"
        }
      ],
      "payable": false,
      "stateMutability": "nonpayable",
      "type": "function"
    },
    {
      "constant": true,
      "inputs": [
        {
          "name": "digest",
          "type": "bytes32"
        },
        {
          "name": "hashFunction",
          "type": "uint8"
        },
        {
          "name": "size",
          "type": "uint8"
        }
      ],
      "name": "getOwnerOfFile",
      "outputs": [
        {
          "name": "ownerAddress",
          "type": "address"
        }
      ],
      "payable": false,
      "stateMutability": "view",
      "type": "function"
    },
    {
      "constant": true,
      "inputs": [],
      "name": "filesQuantity",
      "outputs": [
        {
          "name": "index",
          "type": "uint256"
        }
      ],
      "payable": false,
      "stateMutability": "view",
      "type": "function"
    }
  ],
  "bytecode": "0x608060405234801561001057600080fd5b5061059a806100206000396000f300608060405260043610610062576000357c0100000000000000000000000000000000000000000000000000000000900463ffffffff168063195447fa1461006757806358981def146100f25780639b453da01461017c578063ce6e09a7146101df575b600080fd5b34801561007357600080fd5b506100b06004803603810190808035600019169060200190929190803560ff169060200190929190803560ff16906020019092919050505061020a565b604051808273ffffffffffffffffffffffffffffffffffffffff1673ffffffffffffffffffffffffffffffffffffffff16815260200191505060405180910390f35b3480156100fe57600080fd5b5061013d600480360381019080803573ffffffffffffffffffffffffffffffffffffffff16906020019092919080359060200190929190505050610260565b6040518085600019166000191681526020018460ff1660ff1681526020018360ff1660ff16815260200182815260200194505050505060405180910390f35b34801561018857600080fd5b506101c56004803603810190808035600019169060200190929190803560ff169060200190929190803560ff1690602001909291905050506102c6565b604051808215151515815260200191505060405180910390f35b3480156101eb57600080fd5b506101f4610430565b6040518082815260200191505060405180910390f35b600080610218858585610479565b905060016000826000191660001916815260200190815260200160002060009054906101000a900473ffffffffffffffffffffffffffffffffffffffff169150509392505050565b60006020528160005260406000208181548110151561027b57fe5b9060005260206000209060030201600091509150508060000154908060010160009054906101000a900460ff16908060010160019054906101000a900460ff16908060020154905084565b6000806000803373ffffffffffffffffffffffffffffffffffffffff1673ffffffffffffffffffffffffffffffffffffffff168152602001908152602001600020608060405190810160405280876000191681526020018660ff1681526020018560ff16815260200142815250908060018154018082558091505090600182039060005260206000209060030201600090919290919091506000820151816000019060001916905560208201518160010160006101000a81548160ff021916908360ff16021790555060408201518160010160016101000a81548160ff021916908360ff160217905550606082015181600201555050506103c8858585610479565b90503360016000836000191660001916815260200190815260200160002060006101000a81548173ffffffffffffffffffffffffffffffffffffffff021916908373ffffffffffffffffffffffffffffffffffffffff16021790555060019150509392505050565b60008060003373ffffffffffffffffffffffffffffffffffffffff1673ffffffffffffffffffffffffffffffffffffffff16815260200190815260200160002080549050905090565b60008383836040516020018084600019166000191681526020018360ff1660ff167f01000000000000000000000000000000000000000000000000000000000000000281526001018260ff1660ff167f010000000000000000000000000000000000000000000000000000000000000002815260010193505050506040516020818303038152906040526040518082805190602001908083835b6020831015156105385780518252602082019150602081019050602083039250610513565b6001836020036101000a0380198251168184511680821785525050505050509050019150506040518091039020905093925050505600a165627a7a72305820745f886118a6bb88b4bf241411a9daf632fd24575cc04c8f15447fddfccc15510029",
  "source": "pragma solidity 0.4.24;\n\n\ncontract FileHashStorage {\n    struct File {\n        bytes32 digest;\n        uint8 hashFunction;\n        uint8 size;\n        uint timestamp;\n    }\n    \n    struct User {\n        File[] documents;\n    }\n    \n    mapping (address => File[]) public filesByUser;\n    mapping (bytes32 => address) userByFileHash;\n    \n    function addFile(bytes32 digest, uint8 hashFunction, uint8 size)\n        public\n        returns (bool success)\n    {\n        filesByUser[msg.sender].push(File(digest, hashFunction, size, block.timestamp));\n        bytes32 hash = getIPFSHash(digest, hashFunction, size);\n        userByFileHash[hash] = msg.sender;\n        return true;\n    }\n    \n    function getOwnerOfFile(bytes32 digest, uint8 hashFunction, uint8 size) \n        public\n        view\n        returns (address ownerAddress) \n    {\n        bytes32 hash = getIPFSHash(digest, hashFunction, size);\n        return userByFileHash[hash];\n    }\n    \n    function getIPFSHash(bytes32 digest, uint8 hashFunction, uint8 size)\n        internal\n        pure\n        returns (bytes32 hash)\n    {\n        return keccak256(abi.encodePacked(digest, hashFunction, size));\n    }\n    \n    function filesQuantity()\n        public\n        view\n        returns (uint index)\n    {\n        return filesByUser[msg.sender].length;\n    }\n}\n",
  "sourcePath": "/Users/jmoreira/Code/consensys/academy/project/dapp/contracts/FileHashStorage.sol",
  "compiler": {
    "name": "solc",
    "version": "0.4.24+commit.e67f0147.Emscripten.clang"
  },
  "schemaVersion": "2.0.1",
  "updatedAt": "2018-08-27T18:44:04.561Z"
}